{
  "_format": "hh-sol-artifact-1",
  "contractName": "Box",
  "sourceName": "contracts/Box.sol",
  "abi": [
    {
      "anonymous": false,
      "inputs": [
        {
          "indexed": false,
          "internalType": "uint256",
          "name": "newvalue",
          "type": "uint256"
        }
      ],
      "name": "ValueChanged",
      "type": "event"
    },
    {
      "inputs": [],
      "name": "increment",
      "outputs": [],
      "stateMutability": "nonpayable",
      "type": "function"
    },
    {
      "inputs": [],
      "name": "retriveValue",
      "outputs": [
        {
          "internalType": "uint256",
          "name": "",
          "type": "uint256"
        }
      ],
      "stateMutability": "view",
      "type": "function"
    },
    {
      "inputs": [],
      "name": "retriveVersion",
      "outputs": [
        {
          "internalType": "uint256",
          "name": "",
          "type": "uint256"
        }
      ],
      "stateMutability": "pure",
      "type": "function"
    },
    {
      "inputs": [
        {
          "internalType": "uint256",
          "name": "newval",
          "type": "uint256"
        }
      ],
      "name": "storeValue",
      "outputs": [],
      "stateMutability": "nonpayable",
      "type": "function"
    }
  ],
  "bytecode": "0x608060405234801561001057600080fd5b506102a3806100206000396000f3fe608060405234801561001057600080fd5b506004361061004c5760003560e01c80637221a26a146100515780638ffa812b1461006d5780639fdb1e6a1461008b578063d09de08a146100a9575b600080fd5b61006b60048036038101906100669190610191565b6100b3565b005b6100756100f4565b60405161008291906101cd565b60405180910390f35b6100936100fd565b6040516100a091906101cd565b60405180910390f35b6100b1610106565b005b806000819055507f93fe6d397c74fdf1402a8b72e47b68512f0510d7b98a4bc4cbdf6ac7108b3c59816040516100e991906101cd565b60405180910390a150565b60008054905090565b60006001905090565b60016000546101159190610217565b6000819055507f93fe6d397c74fdf1402a8b72e47b68512f0510d7b98a4bc4cbdf6ac7108b3c5960005460405161014c91906101cd565b60405180910390a1565b600080fd5b6000819050919050565b61016e8161015b565b811461017957600080fd5b50565b60008135905061018b81610165565b92915050565b6000602082840312156101a7576101a6610156565b5b60006101b58482850161017c565b91505092915050565b6101c78161015b565b82525050565b60006020820190506101e260008301846101be565b92915050565b7f4e487b7100000000000000000000000000000000000000000000000000000000600052601160045260246000fd5b60006102228261015b565b915061022d8361015b565b9250827fffffffffffffffffffffffffffffffffffffffffffffffffffffffffffffffff03821115610262576102616101e8565b5b82820190509291505056fea2646970667358221220349961d1748e996d422893e246beef0d7b9a58c33eff528d836a244461bce41d64736f6c63430008080033",
  "linkReferences": {},
  "deployedLinkReferences": {}
}